:020000040800F2
:100000006896012039030008DF2700080522000850
:10001000DD270008810800086530000800000000A6
:10002000000000000000000000000000790200084D
:10003000190B000800000000D5020008A92A0008DA
:100040005303000853030008530300085303000838
:100050005303000853030008530300085303000828
:10006000530300085303000853030008450A00081F
:10007000510A000853030008530300085303000803
:100080005303000853030008530300080000000056
:100090000000000000000000000000005303000802
:1000A00053030008530300085303000853030008D8
:1000B00053030008530300085303000853030008C8
:1000C00053030008530300085303000853030008B8
:1000D00053030008593000085303000800000000D3
:1000E00053030008530300085303000800000000F6
:1000F00000000000000000000000000053030008A2
:1001000000000000530300085303000853030008D5
:1001100000000000000000000000000000000000DF
:100120005303000853030008530300085303000857
:100130005303000800000000000000000000000061
:100140000000000000000000000000005303000851
:100150005D0A000853030008690A000853030008F9
:1001600053030008530300080000000000000000D3
:10017000000000000000000000000000000000007F
:100180000000000053030008000000000000000011
:10019000530300085303000800F002F800F05CF875
:1001A0000AA090E8000C82448344AAF10107DA45D2
:1001B00001D100F051F8AFF2090EBAE80F0013F0C8
:1001C000010F18BFFB1A43F0010318472452000027
:1001D000445200000A444FF0000C10F8013B13F0A9
:1001E000070408BF10F8014B1D1108BF10F8015B90
:1001F000641E05D010F8016B641E01F8016BF9D183
:1002000013F0080F1EBF10F8014BAD1C0C1B09D1D9
:100210006D1E58BF01F801CBFAD505E014F8016B4B
:1002200001F8016B6D1EF9D59142D6D370470000DD
:100230000023002400250026103A28BF78C1FBD8EF
:10024000520728BF30C148BF0B6070471FB505F08B
:10025000A4F81FBD10B510BD00F09EF91146FFF7C0
:10026000F5FF03F0F0FE00F0BCF903B4FFF7F2FF76
:1002700003BC00F0BFF900002C4B19680868B0E817
:10028000F04F80F30988BFF36F8F4FF0000080F3C9
:10029000118870470000000008480068006880F37B
:1002A00008884FF0000080F3148862B661B6BFF38F
:1002B0004F8FBFF36F8F00DF00BF00BF08ED00E07E
:1002C000DFF80C00016841F470010160704700BF65
:1002D00088ED00E0EFF30980BFF36F8F134B1A68CE
:1002E0001EF0100F08BF20ED108A20E9F04F1060BB
:1002F00009B44FF0500080F31188BFF34F8FBFF364
:100300006F8F04F03DFB4FF0000080F3118809BCB3
:1003100019680868B0E8F04F1EF0100F08BFB0EC85
:10032000108A80F30988BFF36F8F70476001002047
:10033000EFF30580704700000948804709480047EF
:10034000FEE7FEE7FEE7FEE7FEE7FEE7FEE7FEE785
:10035000FEE7FEE704480549054A064B70470000E2
:10036000592B000899010008684601206896012071
:10037000685601206856012053EA020C00F069809B
:100380002DE9F04B4FF00006002B1FBFB3FA83F5A9
:1003900003FA05F424FA05F65E4012BF1643B2FADA
:1003A00082F502FA05F4C5F120051EBF22FA05FC0C
:1003B00044EA0C04203556EA044C4FEA144418BFB2
:1003C000641C4FF000084FF00009904271EB030CE1
:1003D00039D3002919BFB1FA81F701FA07F6B0FA4B
:1003E00080F700FA07F6C7F120071EBF20FA07FCC6
:1003F00046EA0C062037B6FBF4FCA7EB0507103FD6
:1004000007F01F0BCBF120060CFA0BFB2CFA06F6BB
:1004100044BFB3460026202FA4BF5E464FF0000B1A
:100420005BEA060C08BF4FF0010B19EB0B09ABFBA5
:10043000027C48EB0608C01B06FB02CC0BFB03CC7E
:1004400071EB0C01C1E70B46024641464846BDE848
:10045000F08B13B54FF000004FF00001AFF30080B8
:10046000BDE81C40704710B5203AC0F00B80B1E8E1
:100470001850203AA0E81850B1E81850A0E81850D9
:10048000BFF4F5AF5FEA027C24BFB1E81850A0E8E2
:10049000185044BF18C918C0BDE810405FEA827CFC
:1004A00024BF51F8043B40F8043B08BF7047D20713
:1004B00028BF31F8023B48BF11F8012B28BF20F8B4
:1004C000023B48BF00F8012B704702F0FF0343EAEC
:1004D000032242EA024200F002B84FF0000204296F
:1004E000C0F0128010F0030C00F01B80CCF1040C63
:1004F000BCF1020F18BF00F8012BA8BF20F8022B97
:10050000A1EB0C0100F00DB85FEAC17C24BF00F83C
:10051000012B00F8012B48BF00F8012B70474FF06A
:10052000000200B5134694469646203922BFA0E843
:100530000C50A0E80C50B1F12001BFF4F7AF09074F
:1005400028BFA0E80C5048BF0CC05DF804EB890040
:1005500028BF40F8042B08BF704748BF20F8022B83
:1005600011F0804F18BF00F8012B7047704770479B
:10057000704710B500F008F8006810BD10B50446CB
:1005800000F002F8046010BD0048704708460120E2
:1005900000487047084601207546FFF7F9FFAE4650
:1005A00005006946534620F00700854618B020B57F
:1005B000FFF7D0FEBDE820404FF000064FF00007E7
:1005C0004FF000084FF0000B21F00701AC46ACE8FB
:1005D000C009ACE8C009ACE8C009ACE8C0098D4668
:1005E000704710B50446AFF300802046BDE81040C8
:1005F000FFF73BBE01491820ABBEFEE72600020014
:10060000704700001FB500218DF80C1064230122F3
:1006100003A98DE80E0013460246D021034800F0DE
:10062000ADFD9DF80C0004B010BD0000E4020020F8
:100630001FB564238DF80C10012203A98DE80E006C
:1006400013460246D021024800F094FE04B010BDCB
:10065000E402002070B5044681489FED800A0D46F3
:1006600080ED000A9FED7F0A80ED010A9FED7E0A72
:1006700080ED020A9FED7D0A0C3080ED000A9FEDAF
:100680007C0A80ED010A9FED7B0AB62180ED020A0B
:100690007E20FFF7CDFFC82003E0774803F0ECFC95
:1006A0000A2000F0C3FB0020FFF7ACFFD828F4D1EC
:1006B0000A2000F0BBFB0320FFF7A4FF322000F06C
:1006C000B5FB11217E20FFF7B3FF322000F0AEFB17
:1006D00015217E20FFF7ACFF642000F0A7FB192155
:1006E0007E20FFF7A5FF0A2000F0A0FB0320FFF704
:1006F00089FF0A2000F09AFB2C214020FFF798FF89
:100700000A2000F093FB2CB1012C05D0022C05D05F
:10071000032C05D0032104E0052102E0082100E0BC
:100720000C214120FFF784FF0A2000F07FFB4C4999
:100730000420143902F072F80A2000F077FB2C2410
:1007400021464220FFF774FF0A2000F06FFB35B10D
:10075000012D06D0022D06D0032D07D105E003247C
:1007600004E0022402E0012400E0002421464320AA
:10077000FFF75EFF0A2000F059FB394904201439C5
:1007800002F04CF80A2000F051FB80214C20FFF7CA
:100790004FFF3C2000F04AFB01214F20FFF748FFAC
:1007A0000A2000F043FB4B214E20FFF741FF0A20B7
:1007B00000F03CFB04214F20FFF73AFF0A2000F035
:1007C00035FB51214E20FFF733FF0A2000F02EFBAE
:1007D0000E214F20FFF72CFF0A2000F027FB5221AB
:1007E0004E20FFF725FF0A2000F020FB02214F20BA
:1007F000FFF71EFF0A2000F019FB4C214E20FFF7E7
:1008000017FF0A2000F012FB42214D20FFF710FFD6
:100810000A2000F00BFB08214420FFF709FF0A2003
:1008200000F004FB03214C20FFF702FF0A2000F038
:10083000FDFA3C2000F0FAFA4420FFF7E3FE3C20EA
:1008400000F0F4FA0D4D002405490420143901F09C
:10085000E5FF641C28701E2CF6DB70BD000054C33D
:10086000D4010020CDCC62423333E8C25A643B3F0E
:100870003F353E3FB4C85E40E40200200000002047
:10088000FEE700002DE9F04100242DED068B9FEDE1
:10089000678AB0EE48AAF0EE489ADFED658A654DAA
:1008A0000526F0EE68AAB0EE689A42F2107700BF13
:1008B000B4FBF6F006FB104020B94FF400515E483F
:1008C00000F08FFB022000F0B1FA5C49042001F037
:1008D000A5FF287018B1022000F0A8FA9EE0574842
:1008E000B0F9001000EE101AF8EEC00A9FED540A9D
:1008F000B0F90210B0F9040001EE101A01EE900AEE
:1009000060EE800AB8EEC11AF8EEE11AF5EEC00A00
:1009100021EE001A21EE800AF1EE10FA09D1B5EEAF
:10092000C01AF1EE10FA04D1B5EEC00AF1EE10FAD9
:1009300074D0F4EEE0AAF1EE10FA01DDF0EE60AA58
:10094000B4EEE0AAF1EE10FA01D2B0EE60AAF4EE35
:10095000C19AF1EE10FA01D2F0EE419AF4EEC18A9A
:10096000F1EE10FA01DDF0EE418AB4EEC09AF1EE3C
:1009700010FA01DDB0EE409AB4EEC08AF1EE10FA42
:1009800001D2B0EE408AB0EE4A0AF0EE6A0A2B4875
:1009900070EE200AB6EE000A1430B0EE681A60EE6F
:1009A000800AF0EE681AF0EE082AC0ED000AF0EEB8
:1009B000690A70EE810AB0EE6A1A60EE800AC0ED34
:1009C000010AF0EE490A78EE200A60EE800AC0EDD6
:1009D000020AF0EE4A0A0C3070EEC10AB0EE691A53
:1009E00031EE611AF0EE491A60EE800A78EE611A73
:1009F00021EE001A61EE801A30EE810A30EE212AD3
:100A000082EE220A80EE202AC0EE010A80ED002A42
:100A1000C0ED010AC0EE210AC0ED020A641CBC420E
:100A2000FFF446AFBDEC068BBDE8F0810000FAC4D0
:100A30000000FA440000002000080240C00100202D
:100A40009A99993E014800F07BB800009803002075
:100A5000014800F075B8000038030020014800F09C
:100A60006FB80000B8040020014800F069B8000029
:100A70005804002001681823CAB2103AB2FBF3F2FE
:100A8000054B6FF30901032A9B5CC36500D9091D5F
:100A90008165084670470000C453000810B5014640
:100AA00000208B698A6A4FF0C07453B1B3F5005FC0
:100AB00015D072B1012A0CD0022A0AD0032A09D11A
:100AC00004E01AB1012A06D0022A03D1C96AC90179
:100AD00000D5012010BDC96AA142FAD010BD002A7C
:100AE000F7D0012AF2D0022AF3D0032AF3D010BDA6
:100AF00030B50468256825F48025256004686360A6
:100B00008368402B036803D099600068C26030BDE1
:100B10009A600068C16030BD7047704790F835102A
:100B2000022903D08021416501207047052180F80A
:100B300035100068016821F0010101600020704754
:100B40002DE9F84304464FF00009CDF800906348C2
:100B50004FF41651A56D0068B0FBF1F72E6894F8BC
:100B60005C10082000FA01F131420FD021680A68B8
:100B700052070BD50A6822F004020A6094F85C1050
:100B80008840A860606D40F00100606594F85C10DA
:100B90004FF0010808FA01F0304208D02168496995
:100BA000090604D5A860606D40F00200606594F805
:100BB0005C1004208840304208D021680968890709
:100BC00004D5A860606D40F00400606594F85C1086
:100BD00010208840304218D021680968090714D5D0
:100BE000A86020680168490304D50068000308D59F
:100BF000A16C07E00168C90503D4016821F0080170
:100C00000160216C09B12046884794F85C102020CF
:100C10008840304231D021680968C9062DD5A860C6
:100C200094F8350005282068016806D0490347D5A7
:100C3000006800031DD4616C1CE021F01601016006
:100C40002068416921F080014161206C08B9A06CE5
:100C500020B12068016821F00801016094F85C105F
:100C60003F208840A86084F8349084F83580216D56
:100C70001FE0E16B09B120468847606D00282BD04A
:100C8000606DC00714D0052084F835002068016825
:100C900021F0010101600098401C0090B84203D887
:100CA00020680068C007F6D184F8349084F8358055
:100CB000E16C002910D001B02046BDE8F0430847A0
:100CC0000168C905D5D4016821F01001016084F8DC
:100CD000349084F83580CCE7BDE8F8835C010020CF
:100CE0002DE9F041044600F089F906465CB1002583
:100CF00084F83450022084F835002068016821F01F
:100D0000010101600DE00120BDE8F08100F076F9FD
:100D1000801B052805D920206065032084F8350054
:100D2000F2E720680068C007F0D122681168204807
:100D30000140D4E901031843D4E90336334318438F
:100D400063691843A3691843E3691843236A184386
:100D50000843616A042903D1D4E90B1319430843FA
:100D6000106020684069666A20F0070130460E4333
:100D7000012704280CD1A06A0643E06A40B120464E
:100D8000FFF78CFE20B14020606584F83570BAE72B
:100D9000206846612046FFF76DFE94F85C203F21F5
:100DA00091408160656584F835700020ACE70000F3
:100DB0003F8010F02DE9F0410446866D90F8340034
:100DC000002501280DD0012084F8340094F83570F6
:100DD0000020012F07D084F8340002252846BDE802
:100DE000F0810220FBE7022784F835706065204619
:100DF000FFF77EFE94F85C103F208840B0602068CA
:100E0000016841F0160101602068416941F08001EC
:100E10004161206C20B12068016841F00801016047
:100E20002068016841F001010160D7E770B5044610
:100E300000F0E4F80546601C02D004480078044441
:100E400000F0DCF8401BA042FAD370BD5001002036
:100E50002DE9F84FDFF860B100224FF001084FF0A4
:100E6000030A4FF00F090BF1040E00BF0B6808FADC
:100E700002F42340A3426ED14D68022D01D0122D01
:100E80000ED1D50800EB850CDCF820505607F70E84
:100E900009FA07F6B5430E69BE402E43CCF8206030
:100EA000066855000F790AFA05FC07F0030726EAE1
:100EB0000C06AF40374307604E68012E05D0022E66
:100EC00003D0112E01D0122E0ED18668CF6826EAEB
:100ED0000C06AF40374387604668A6430C79C4F3DD
:100EE0000014944034434460C6688C6826EA0C06BB
:100EF000AC403443C4604C68E40056D52F4C2568A0
:100F000045F480452560246822F0030504F48044FC
:100F100000942B4C2E19D6F8084895072F0F09FA84
:100F200007F5AC43274DA84201D1002515E0264D19
:100F3000A84201D1012510E0244DA84201D102258B
:100F40000BE0234DA84201D1032506E0214DA84224
:100F500002D1042501E028E00725BD402543C6F85D
:100F60000858DBF800405D464E689C43F60300D508
:100F70001C432C60DEF8004075464E689C43B60367
:100F800000D51C432C600C4D08352C684E689C43E2
:100F9000F60200D51C432C60074D0C352C684E68BA
:100FA0009C43B60200D51C432C60521C102AFFF44F
:100FB0005DAFBDE8F88F0000003C014044380240BE
:100FC00000300140000002400004024000080240DE
:100FD000000C0240001002400069084000D00120CF
:100FE0007047426931EA020200D109048161704709
:100FF0000AB1816170470904FBE70000014880687D
:10100000704700005001002070B504001BD094F818
:101010003D00002520B984F83C50204600F042FAFB
:10102000242084F83D002068016821F0010101605E
:1010300000F082FC4D4A6168914201D84C4900E0C1
:101040004C49884201D2012070BD4B492368B0FB56
:10105000F1F15E6826F03F060E435E6063689342DE
:1010600006D94FF4967359434FF47A73B1FBF3F1F9
:101070002368491C1E6A26F03F06314319626168E5
:10108000914210D84900401EB0FBF1F2521CC2F34D
:101090000B02042A01D2042022E0B0FBF1F0401C34
:1010A000C0F30B001CE0A368F3B301EBC10202EB39
:1010B0000116421EB2FBF6F2521C42F480421205A7
:1010C00049D093B301EBC10202EB0111401EB0FB0A
:1010D000F1F0401CC0F30B0040F4804040F40040AD
:1010E0002168CA694CF6FF739A431043C861D4E97A
:1010F0000701084321680A6822F0C0021043086013
:10110000D4E9030101432068826848F2FF339A431F
:1011100011438160D4E9050108432168CA6822F0BF
:10112000FF021043C86001E00EE016E0206801688D
:1011300041F0010101602564202084F83D00256311
:1011400084F83E50002070BD01EB4106421EB2FB08
:10115000F6F2521CB3E70120C2E701EB4101401E49
:10116000B0FBF1F0401CC0F30B00B7E7A086010014
:1011700080841E0000093D0040420F002DE9FF4F12
:1011800083B09A46DDE9119793460446DDF8408026
:10119000FFF734FF054694F83D00202870D119234D
:1011A000012271492046009501F028F90028F5D167
:1011B00094F83C00012863D0012084F83C002068AA
:1011C0000168C90703D1016841F00101016020688D
:1011D000016821F400610160222084F83D00402074
:1011E00084F83E0000262664C4F82480A4F82A90DF
:1011F000608D20855D48E062CDE9007553465A4612
:101200002046049901F016F800287CD1208DD0B139
:10121000012821D00228206824D0416980690090EB
:10122000208D032869D801282BD0514902283B463C
:101230004FF00002009559D08846204601F0DEF8B4
:10124000002860D13CE02068416981690091016813
:1012500041F40071016077E02068016821F4806149
:101260000160F0E7016821F4806101602068016895
:1012700041F400610160206841698069009063E089
:101280006FE02A463946204601F037F998BB2068BE
:101290000069616A08704EE02068016841F40071DD
:1012A000016020680069616A0870606A401C6062C1
:1012B000218D491E2185618D491E6185216838E097
:1012C0002068016821F48061016020680069616A1A
:1012D0000870606A401C6062208D401E2085608D11
:1012E000401E60853B46002241460095204601F0A5
:1012F00085F800B9D0E706E0FFE72A4639462046E0
:1013000001F0FBF818B1012007B0BDE8F08F2068AC
:101310000069616A0870606A401C6062218D491E24
:101320002185618D491E618521684A69D243520732
:101330000AD409690170606A401C6062208D401EF9
:101340002085608D401E6085208D00287FF468AF69
:10135000202084F83D0084F83E6084F83C60002042
:10136000D2E70220D0E70000020010000000FFFFDB
:10137000040001002DE9FF4F83B09A46DDE9119783
:1013800093460446DDF84080FFF738FE054694F8A2
:101390003D0020287FD11923012240492046009595
:1013A00001F02CF8002876D194F83C00012872D086
:1013B000012084F83C0020680168C90703D1016856
:1013C00041F0010101602068016821F400610160C1
:1013D000212084F83D00402084F83E000026266449
:1013E000C4F82480A4F82A90608D20852C48E062FF
:1013F000CDE9007553465A462046049900F08EFF09
:1014000070B930E02A463946204601F0A9F858B1B3
:10141000206C042804D12068016841F40071016047
:10142000012007B0BDE8F08F606A2168007808618C
:10143000606A401C6062218D491E89B22185628DDF
:10144000521E628522685369DB435B070BD469B186
:1014500000781061606A401C6062208D401E20850B
:10146000608D401E6085208D0028CBD12A463946EC
:10147000204600F09DFF0028CAD154F83D0B0168BA
:1014800041F400710160202004F81E09E6776677B8
:101490000020C6E7FFE70220C3E7000002001000BB
:1014A0000000FFFF2DE9F04186B006461421684692
:1014B000FFF735F82B493068884250D12A4800247C
:1014C000016841F0020101600068694600F0020015
:1014D00005904FF4107000901220019001200290AE
:1014E00003200390042004902048FFF7B1FC1E481D
:1014F0001030016841F40011016000681D4D00F4D6
:10150000001005901A48E5E802044020070191C543
:101510004FF4403845F814491648AC61C5E907480E
:101520006C62FFF7DDFB08B1FFF7F7FA7563AE6396
:10153000104D0F486035183828604005C5E9010492
:10154000C5E903476C61AC61C5E9074828466C6290
:10155000FFF7C6FB08B1FFF7E0FAB563AE6306B06C
:10156000BDE8F081005400403038024000040240E1
:101570002860024038030020024881680278114444
:1015800081607047500100200B4810B5016841F49C
:1015900000710160016841F480610160016841F4FB
:1015A00080710160032000F073F80F2000F006F84E
:1015B00000F024F8002010BD003C024070B50D4D35
:1015C00004464FF47A712878B1FBF0F00A490968B3
:1015D000B1FBF0F000F00DFC48B9102C07D200224E
:1015E0002146501E00F034F800206C6070BD0120D0
:1015F00070BD0000500100205C0100200C4882B04A
:10160000016841F480410160006800F4804000906E
:101610000748001F016841F0805101600068002206
:1016200000F0805000900F21901E02B000F010B822
:1016300044380240002809DB00F01F0201219140DC
:101640004009800000F1E020C0F800117047000060
:10165000F0B40E4B1B680C46C3F30223C3F107051D
:10166000042D00D90425191D072901D2002300E00B
:10167000DB1E012606FA05F1491E214099409E40D5
:10168000761E16403143F0BC01F015BD0CED00E0B4
:10169000064900F0070208684FF6FF03184040EAC9
:1016A0000220034A10430860704700000CED00E080
:1016B0000000FA052DE9F843044600684FF00109DF
:1016C000C1074FF0000601D1400729D5DFF820817E
:1016D000C8F86860FFF792FC0746464D05E000BF7A
:1016E000FFF78CFCC01B022859D828680001F7D4EA
:1016F000A068217B800140EA0170616808433D4990
:1017000084310860C8F86890FFF778FC074604E069
:10171000FFF774FCC01B022841D828680001F7D5E8
:101720002078800752D533484030016841F080511D
:1017300001600068304D00F080500090286840F44F
:1017400080702860FFF75AFC074604E0FFF756FC5C
:10175000C01B022823D82868C005F7D5254D703551
:10176000286810F4407020D0218A01F44071814231
:101770001BD02868214920F44070C1F800900E6009
:1017800028602868C00710D0FFF738FC064641F2F1
:10179000883707E0FFF732FC801BB84202D90320EC
:1017A000BDE8F88328688007F4D521691148C1F3A2
:1017B00001220830032A12D0016821F4F8110160D7
:1017C0002868218AC1F30B010843286020780007AC
:1017D00003D50B49207DC1F8E0010020E0E7026855
:1017E000084B22F4F81219400A430260E8E70000AF
:1017F000000047420038024000700040400E47425F
:1018000000104742FFFCFF0F2DE9F0470E46050090
:1018100065D0DFF81481D8F80000F7B200F00F00AF
:10182000B04207D288F80070D8F8000000F00F002E
:10183000B04254D128683D4C810712D5400703D5EA
:10184000206840F4E05020602878000703D5206825
:1018500040F4604020602068A96820F0F000084350
:1018600020602878C0072DD03049686808390128E1
:1018700012D0022813D0032811D009688907002943
:101880002DDA216821F0030101432160FFF7B6FB47
:10189000814641F2883A0EE009688903EFE709685A
:1018A0008901ECE7FFF7AAFBA0EB0901514502D93A
:1018B0000320BDE8F0872068696800F00C00B0EBF9
:1018C000810FEFD1D8F80010404601F00F01B1426E
:1018D00007D90770006800F00F00B04201D0012066
:1018E000E7E72878400705D52068E96820F4E0504C
:1018F000084320602878000706D52068296920F46D
:10190000604040EAC100206000F036F82168084AD3
:10191000C1F30311515CC840064908600F20FFF76E
:101920004DFE0020C5E70000003C024008380240A0
:10193000CC5300085C010020044805490068096890
:10194000044AC1F38221515CC84070475C01002009
:1019500008380240DC53000804480549006809685B
:10196000044AC1F34231515CC84070475C01002019
:1019700008380240DC530008154810B5006810F024
:101980000C02144813D01449042A0FD0082A0ED18F
:101990000F4C241F2268236802F03F025B0207D528
:1019A0002068C0F38810A0FB010106E0084610BDC6
:1019B0002168C1F38811A1FB00010023FEF7DCFCC4
:1019C0002168C1F30141491C4900B0FBF1F010BD91
:1019D000083802400024F40040787D012DE9F84FDA
:1019E000050076D02878DFF8F8B2BE4CC00749D0A1
:1019F000DBF800105846C1F38101012908D00068C6
:101A0000C0F3810002280AD1201D0068400206D5DB
:101A10002068800336D568680028E2D032E0686824
:101A2000B0F5803F10D0B0F5A02F206810D020F482
:101A300080302060206820F4802020606868A0B199
:101A4000FFF7DCFA06460CE0206840F48030F4E74B
:101A500040F480202060F7E7FFF7D0FA801B64286D
:101A600073D820688003F7D50CE0FFF7C7FA064665
:101A700005E000BFFFF7C2FA801B6428F0D8206899
:101A80008003F7D42878DFF8608280074FF00009E0
:101A90003ED5DBF80010584611F00C0F09D0006855
:101AA000C0F3810002280BD18D48001F006840025E
:101AB00006D42068800715D5E868012809D111E00F
:101AC000E868B8B10120C8F80000FFF797FA0646A9
:101AD00005E002E1FFF792FA801B0228C0D82068D7
:101AE0008007F7D52068296920F0F80040EAC10096
:101AF00020600DE0C8F80090FFF780FA064604E089
:101B0000FFF77CFA801B02281FD820688007F7D4D3
:101B10002878000722D5724E744869696C3671B115
:101B200001210160FFF76AFA074604E0FFF766FA51
:101B3000C01B022809D830688007F7D50EE0C0F82E
:101B40000090FFF75BFA074605E083E0FFF756FADF
:101B5000C01B02287ED830688007F7D42878400759
:101B600068D5DFF87CA100270AF1380ADAF800000E
:101B7000C0000BD4DAF8001041F08051CAF8001010
:101B8000DAF80000012700F080500090584E3068CD
:101B9000C00510D4306840F480703060FFF72EFA32
:101BA000009005E0FFF72AFA0099401A022851D860
:101BB0003068C005F6D54A4EA868683601280FD0AF
:101BC0000528306810D020F001003060306820F027
:101BD00004003060A868B8B1FFF710FA00900FE079
:101BE000306840F00100F4E740F004003060F7E7AF
:101BF000FFF704FA0099411A41F28830814264D813
:101C000030688007F4D50EE0FFF7F8F9009007E0A0
:101C1000FFF7F4F90099411A41F28830814254D813
:101C200030688007F4D42FB1DAF8001021F0805129
:101C3000CAF80010A869C0B3DBF80010C1F3810135
:101C400002294AD00228484607D0C8F86000FFF7AA
:101C5000D5F900E039E005463AE04746C8F86000AB
:101C6000FFF7CCF9064604E0FFF7C8F9801B02280D
:101C70002BD820688001F7D4D5E907010843A96A69
:101C80001C4A490802EB01416A6A41EA8211084391
:101C900095F82C1040EA01611148001F01600120F5
:101CA0003866FFF7ABF9054605E014E0FFF7A6F943
:101CB000401B022809D820688001F7D50BE000BF3F
:101CC000FFF79CF9401B022802D90320BDE8F88FDA
:101CD00020688001F4D40020F8E70120F6E7000036
:101CE000083802400038024000004742800E474258
:101CF000007000400000FFFF70B5040002D0607F5C
:101D000010B106E0012070BD00202077204600F0D1
:101D100049F8022060772168CA2048622168532070
:101D20004862204600F05CFDFF25042618BB2068B1
:101D300081681B4A1140816021688868626810438D
:101D4000D4E904231A43104388602168E0680861DD
:101D500020680169228941EA024101612068C16865
:101D600021F08001C16020688068800607D4204689
:101D700000F024F818B1206845626677C2E7206851
:101D8000016C21F4802101642068016CA269114377
:101D900001642068456201206077002070BD00006A
:101DA000BFFF8FFF00680349884202D1024901202A
:101DB00008607047002800403C0E474270B504465A
:101DC0000068C16821F0A001C160FFF717F905465E
:101DD0004FF47A7607E000BFFFF710F9401BB042DE
:101DE00001D9032070BD2068C0688006F4D50020AA
:101DF00070BD10B5401EB0F1807F01D3012010BD31
:101E00004FF0E02460610F21601701F054F90020C9
:101E1000A06107202061002010BD704770B50268E6
:101E200004461068D168536910F00F0F50D003F0CA
:101E3000010501F4907635435DD0C20705D0CA058F
:101E400003D5E26B42F00102E263420705D5DA07EF
:101E500003D0E26B42F00202E263820705D5DA07A3
:101E600003D0E26B42F00402E263020705D5DA0711
:101E700003D0E26B42F00802E263E26B002A33D047
:101E8000800604D5880602D5204600F012FF20689F
:101E90004069E16BC0F38010090700D428B32046E5
:101EA00000F0F0FE2068416949061AD5416921F029
:101EB00040014161606BA0B11B490165606BFEF799
:101EC0002DFE002810D0606B016DBDE87040084702
:101ED000830610D58B060ED52046BDE8704000F075
:101EE000E8BE2046FFF799FF70BD2046FFF795FF3B
:101EF0000020E06370BD030606D50B0604D520461E
:101F0000BDE8704001F076B84006F3D54806F1D53B
:101F1000D168204621F04001D160202184F8391099
:101F200000F06EF970BD0000AD2B000870B5040024
:101F300004D094F83900002510B106E0012070BDEE
:101F400084F83850204600F023F8242084F8390023
:101F50002068C16821F40051C160204600F0F4FE01
:101F60002068016921F4904101612068416921F0F4
:101F70002A0141612068C16841F40051C160E563F4
:101F8000202084F8390084F83A00002070BD000059
:101F90002DE9F04186B0064614216846FEF7BFFAE7
:101FA0003149306888425BD130480025016841F0F2
:101FB00010010160006800F0100005902B481438F3
:101FC000016841F0010101600068694600F001000C
:101FD00005904FF4044000900220019001200290EF
:101FE00003200390072004902148FEF731FF224C84
:101FF00020484FF00067E4E8020740204FF4806873
:10200000A4E82101C00244F81459A561C4E90750AD
:1020100019486562FEF764FE08B1FEF77EFD346381
:10202000A663154C1348603430382060C4E901754C
:10203000C4E9035880156561C4E90650256220464D
:102040006562FEF74DFE08B1FEF767FD746300227E
:1020500009212520A663FFF7FBFA2520FFF7EAFAFE
:1020600006B0BDE8F0810000001001404438024095
:1020700000000240B864024058040020F8B504464D
:1020800090F83A0020283CD1C1B3BAB394F8380094
:10209000012836D0012084F83800A162A2850025ED
:1020A000E563222084F83A00636B1748D863636BBA
:1020B00016481864636B1648D864606B1346056550
:1020C0000846666B216802463046091DFEF772FE1F
:1020D000206801684168009184F83850C16841F473
:1020E0008071C1602068416941F00101416120684F
:1020F000416941F0400141610020F8BDFFE7012046
:10210000FBE70220F9E70000072C0008432C000839
:10211000BD2B000830B500681649884213D1164A15
:102120000020531DA2F11001D1F81640C1F815404E
:10213000145C4C761D78BB2D01D1EE2C04D0401CD4
:10214000C0B20528F0D330BD5C7801230020012CFB
:1021500004D0062C04D0092C05D103E00B7002E05A
:102160004B7000E0487010601071C1F8150048769F
:1021700030BD000000100140440100207047000005
:1021800070B5044690F83900202830D169B362B3A5
:1021900094F8380001282AD0012084F83800216200
:1021A000A284E2840025E563212084F83900236BB2
:1021B0001048D863236B10481864236B0F48D86409
:1021C000206B134605652668206B321DFEF7F2FD75
:1021D00021686FF04000086084F838502068416939
:1021E00041F080014161002070BD012070BD0220DE
:1021F00070BD00004D2C00087B2C0008BD2B000892
:1022000070477047FEE701684A69D24352050FD410
:102210006FF480624A61002140F8301F202242732F
:102220008173026942F00402026101730120704768
:10223000002070472DE9F84F0446006889460B9D41
:1022400001689846174641F4806101602068016882
:1022500041F48071016000954FF0011A002251464F
:1022600020460A9B00F0CAF8002853D1216809F0E3
:10227000FE0008610AF1010B2B46594620460A9AD6
:1022800000F0F0F8F0BB20684169806900902A46B0
:1022900020460A9900F064F940B1206C042839D135
:1022A0002068016841F40071016033E0FEB2B8F1CA
:1022B000010F09D02168380A08612A4620460A9988
:1022C00000F04EF90028E8D1206806612A46204631
:1022D0000A9900F045F90028DFD12068016841F42F
:1022E0008071016000950022514620460A9B00F053
:1022F00085F838B9216809F0FF0040F00100086155
:102300002B4600E006E0594620460A9A00F0AAF85B
:10231000002800D00120BDE8F88F00002DE9F84327
:10232000044600680D46DDE90897016898461646A0
:1023300041F4807101604B4600224FF001112046AC
:10234000009700F05BF8E0B9216805F0FE00086135
:102350003B464A461549204600F084F888B9206873
:102360004169806900903A464946204600F0F8F8F5
:1023700050B1206C042804D12068016841F4007138
:1023800001600120BDE8F883F5B2B8F1010F09D072
:102390002168300A08613A464946204600F0E0F8D4
:1023A0000028E6D1206805610020EBE7020001006B
:1023B00070B516460D4604460DE02046FFF723FF94
:1023C00008B1012070BD681C05D0FEF717FE801B08
:1023D000A84207D835B120684069C0434007ECD413
:1023E000002070BD002044F8300F20216173A073DD
:1023F000216941F0200121612073E2E72DE9F047D6
:102400001E4690460D460446C1F30747DDF820906E
:1024100008E0701C06D0FEF7F1FDA0EB0900B04209
:102420000FD876B12068012F18D0806925EA000006
:102430000004000C14D000214145EAD00020BDE882
:10244000F087002044F8300F20216173A0732169C8
:1024500041F02001216120730120F0E74069E5E7A8
:102460000121E9E72DE9F0479A4691460E460446D8
:1024700000254FF02008C1F3074725E02068406998
:10248000C043400514D42068016841F40071016024
:1024900021686FF480604861256384F83D8084F88A
:1024A0003E50206C40F00400206484F83C501FE053
:1024B000B9F1FF3F08D0FEF7A1FDA0EB0A014945A5
:1024C0000CD8B9F1000F09D02068012F13D0806912
:1024D00026EA00000004000C0BD0CFE744F8305F80
:1024E00084F80D80A573206940F0200020612573D9
:1024F0000120BDE8F0874069EAE72DE9F0410025B9
:1025000090460E460446202717E04069C043C006A7
:102510000CD454F8301B6FF01000486144F8105987
:102520006777A577206A2062257717E0FEF766FDBA
:10253000A0EB0800B04208D83EB120684169C94309
:102540004906E2D40020BDE8F08144F8305F6773AB
:10255000A573206940F02000206125730120F2E777
:1025600070B516460D4604460DE02046FFF74BFEBB
:1025700008B1012070BD681C05D0FEF73FFD801B2F
:10258000A84207D835B120684069C0430006ECD4A2
:10259000002070BD002044F8300F20216173A0732B
:1025A000216941F0200121612073E2E7194808B553
:1025B000016841F400110160016801F4001100910B
:1025C000016841F4800101600068002200F480008D
:1025D000009007210B20FFF73BF80B20FFF72AF8AC
:1025E000002207210C20FFF733F80C20FFF722F818
:1025F000002209214420FFF72BF84420FFF71AF8A6
:10260000002209214620FFF723F8BDE808404620B4
:10261000FFF710B83038024000B585B014220649E3
:102620006846FDF720FF0021684601F0F5FD0349EB
:10263000C86005B000BD0000B053000834010020A0
:102640002DE9F04786B014216846FDF768FF33484E
:102650000025016841F004010160016801F00401F6
:102660000591016841F080010160016801F080017D
:102670000591016841F001010160016801F001016B
:102680000591016841F0020101600068012200F03B
:102690000200DFF88C805403059021464046FEF787
:1026A000A7FC0122DFF87C90960331464846FEF7EE
:1026B0009FFC0122DFF870A0D70239465046FEF792
:1026C00097FC00940124694640460194CDE90245F7
:1026D000FEF7BEFB15486946CDE90040504602941E
:1026E000FEF7B6FBCDE9006469464846CDE90245F0
:1026F000FEF7AEFBCDE9007469465046CDE90245D0
:10270000FEF7A6FB2003CDE900056946029450467A
:10271000FEF79EFB06B0BDE8F087000030380240AF
:1027200000080240000402400000024000002110A6
:102730000D4810B50B4901600C49416000214FF470
:1027400080428160C0E9031241618161C16101621F
:10275000FEF75AFC002803D0BDE81040FEF7DDB9B3
:1027600010BD000000540040E4020020801A060062
:102770000B4810B50949016000217F22C0E9011210
:10278000FF22C0E9032141618161FFF7B5FA00280A
:1027900003D0BDE81040FEF7C0B910BD00280040CE
:1027A000F80300200C4810B50A4901604FF47A3153
:1027B0004160002181600C22C160C0E90412816186
:1027C000C161FFF7B3FB002803D0BDE81040FEF75E
:1027D000A4B910BD0010014018040020FEE77047A6
:1027E00070B504460068C168490614D44FF0FF3143
:1027F000C160FEF703FC05464FF47A7607E000BFA0
:10280000FEF7FCFB401BB04201D9032070BD2068DD
:10281000C0684006F4D5002070BD00000EB514233A
:10282000CDE900135022029202460123D021024832
:10283000FEF7A4FC0EBD0000E40200202DED028B8B
:1028400002F0ACF9884DA860642001F0D9FC0221A7
:102850000846FDF7FFFE142001F0D2FC00F004FC56
:10286000052205F110018148FFF708FC142001F052
:10287000C7FC7F4CDFF8FC814FF0BB0A4FF0EE093C
:102880009FED7D8A7D4F4FF00A0B287801283DD1BE
:10289000FDF7F8FF00262E70C8217548FDF71DFED4
:1028A00004F803AB012104F802AC04F8011C7449DC
:1028B0006A6822600B6863604B68A3608968E160A6
:1028C00084F81090504684F811A0A0746D48E67406
:1028D00062610268A2614268E2618068206284F8F5
:1028E000249000224FF400616748E41EFEF780FB4D
:1028F000C8225F495D48FFF743FC1420FEF796FAB3
:10290000C8215B48FDF7E9FD6E602E700221084684
:1029100000F0D4FD687838B19FED5C0A88ED000ABC
:1029200088ED010A88ED020A594898ED024AD8ED6F
:10293000013A98ED003AF0EE484AD0EC031A5548B7
:1029400090EC030A01F06EF897ED000A524801F08E
:1029500057FB87ED000A97ED010A504801F050FB44
:1029600087ED010A97ED020A4D4801F049FB87ED1A
:10297000020A68685E46B0FBF6F10BFB110101EB41
:102980008102B0FBF6F104F822A0B0FBF6F20BFBDB
:10299000120202EB820204EB82020BFB110182F8AD
:1029A00001A001EB810104EB810202219170B0FBD7
:1029B000F6F106FB110101EB810104EB8101C1F885
:1029C0000300B0FBF6F106FB110101EB810104EB02
:1029D00081013A68C1F80720B0FBF6F106FB11014E
:1029E00001EB810104EB81017A68C1F80B20B0FB97
:1029F000F6F106FB110101EB810104EB8101BA68DC
:102A0000C1F80F20B0FBF6F106FB110101EB8101CB
:102A100004EB8102401C82F813905021B0FBF1F2CC
:102A2000686001FB120020B94FF400511D48FEF709
:102A3000D8FA6868B0FBF6F106FB110070B9002205
:102A40004FF400611048FEF7D3FA0220401C0A2818
:102A5000FCDBC82206490548FFF792FB0248022129
:102A6000083001F00BFF10E73401002018040020AB
:102A70001C020020040200206F12033B1002002001
:102A8000D4010020E001002000000240000000000E
:102A9000EC010020F8010020DC000020F400002000
:102AA0000C0100200008024010B5FEF765FD02F0A1
:102AB00067F8012803D0BDE8104002F01FB810BD30
:102AC00030B599B030216846FDF729FD14210CA8D6
:102AD000FDF725FD182111A8FDF721FD1C48002553
:102AE000016841F080510160006800F0805017904B
:102AF0001848016841F44041016000684FF480319A
:102B000000F4404017900520CDE900010121029119
:102B100002248905CDE906410C21CDE90A4008913E
:102B2000602109916846FEF759FF0CA90F2081E842
:102B30003100E0020F90109003210CA8FEF764FE14
:102B4000E0011590119411A8FEF7B4FD19B030BD45
:102B500040380240007000401048016841F47001A4
:102B600001600F48016841F0010101600C4A002139
:102B70000832116002680B4B1A400260031D0A4ABA
:102B80001A60026822F48022026005480C3001605D
:102B900002495806803908607047000088ED00E05F
:102BA00000380240FFFFF6FE1030002410B5806BA5
:102BB0000021C185C184FFF730F910BD70B5846B69
:102BC0002068406994F83910C0F3C010002521290D
:102BD00004D118B1E584204600F062F8206840690D
:102BE00094F83A10C0F38010222904D118B1E58579
:102BF000204600F047F8E06B40F01000E06320460C
:102C0000FFF70BF970BD10B50146806B09680968C4
:102C1000C90513D40021C1850168CA6822F48072F5
:102C2000CA6001684A6922F001024A6101684A6982
:102C300022F040024A61202180F83A10FFF76AFA38
:102C400010BD10B5806BFFF799FA10BD10B50146A5
:102C5000806B09680968C9050CD40021C18401682A
:102C60004A6922F080024A610068C16841F040016F
:102C7000C16010BDFFF7C4FA10BD10B5806BFFF73F
:102C8000C0FA10BD0168CA6822F49072CA60016877
:102C90004A6922F001024A61202180F83A10704707
:102CA0000168CA6822F0C002CA60202180F8391089
:102CB000704710B590F83A10222901D0022010BDBB
:102CC0008168B1F5805F11D00169002901681FD0CA
:102CD000496801F07F03816A4A1C82620B70C18DD2
:102CE000491E0904090CC18518D02BE00269816ACC
:102CF000002A0268526805D0D2B20A80816A491C53
:102D00008162ECE7C2F308020A80816A891CF7E756
:102D10004A68816A4B1C83620A70E0E70168CA68EE
:102D200022F02002CA600168CA6822F48072CA6078
:102D300001684A6922F001024A61202180F83A10B4
:102D4000FFF7E8F9002010BD2DE9F04104460068C6
:102D50000169E26821F44051114301612169A068D1
:102D6000E26908436169114322680843D16849F266
:102D70000C6399430143D16020684169A26921F441
:102D8000407111434161E2696425B2F5004F9748F3
:102D9000974922684FF032083FD08A4201D08242E0
:102DA0007CD1FEF7D9FD00EBC00101EB001061689A
:102DB0008900B0FBF1F6FEF7CFFD00EBC00101EB9F
:102DC000001061688900B0FBF1F0B0FBF5F06FF026
:102DD0001801484306EB800108EB0110B0FBF5F049
:102DE00000F0F006FEF7B8FD00EBC00101EB0010AB
:102DF00061688900B0FBF1F0B0FBF5F006EB00165E
:102E0000FEF7AAFD00EBC00101EB0010616889002C
:102E1000B0FBF1F7FEF7A0FDD2E08A4201D082427A
:102E20003DD1FEF799FD00EBC00101EB0010616898
:102E30004900B0FBF1F0B0FBF5F00601FEF78CFDA8
:102E400000EBC00101EB001061684900B0FBF1F735
:102E5000FEF782FD00EBC00101EB00106168490044
:102E6000B0FBF1F0B0FBF5F06FF01801484307EB51
:102E7000800108EBC100B0FBF5F000F0F80006EBB4
:102E80004006FEF769FD00EBC00101EB0010616830
:102E90004900B0FBF1F7FEF75FFD3CE055E0FEF7BF
:102EA0004BFD00EBC00101EB001061684900B0FB75
:102EB000F1F0B0FBF5F00601FEF73EFD00EBC001BE
:102EC00001EB001061684900B0FBF1F7FEF734FD3B
:102ED00000EBC00101EB001061684900B0FBF1F0AC
:102EE000B0FBF5F06FF01801484307EB800108EBE9
:102EF000C100B0FBF5F000F0F80006EB4006FEF76D
:102F00001BFD00EBC00101EB001061684900B0FB44
:102F1000F1F7FEF711FD00EBC00101EB0010616855
:102F20004900B0FBF1F0B0FBF5F06FF01801484339
:102F300007EB800108EBC100B0FBF5F000F00700E3
:102F4000216830448860BDE8F081FEF7F5FC00EBB5
:102F5000C00101EB001061688900B0FBF1F6FEF7DB
:102F6000EBFC00EBC00101EB001061688900B0FBD5
:102F7000F1F0B0FBF5F06FF01801484306EB80016B
:102F800008EB0110B0FBF5F000F0F006FEF7D4FC02
:102F900000EBC00101EB001061688900B0FBF1F0AB
:102FA000B0FBF5F006EB0016FEF7C6FC00EBC00127
:102FB00001EB001061688900B0FBF1F7FEF7BCFC83
:102FC00000EBC00101EB001061688900B0FBF1F07B
:102FD000B0FBF5F06FF01801484307EB800108EBF8
:102FE0000110B0FBF5F000F00F00A9E7001401405C
:102FF0000010014090F83910212901D002207047BB
:103000008168B1F5805F016A0BD04A1C02620268D8
:1030100009785160C18C491E0904090CC1840ED085
:1030200017E009880268C1F30801516001690029AD
:10303000016A02D0491C0162ECE7891CFBE70168C8
:10304000CA6822F08002CA600068C16841F040018D
:10305000C1600020704700000148FEF7DFBE00009D
:1030600018040020FEE7000010B501229103064875
:10307000FDF7BEFF0120FDF7D9FE0122BDE810409B
:10308000D1020248FDF7B4BF000402400000024034
:103090004100080218BF04200A0E18BF40F00100CA
:1030A0004FF07F4232EA010108BF40F002000128E0
:1030B00008BF052070470907090E002804DB00F14E
:1030C000E02080F80014704700F00F0000F1E020CD
:1030D00080F8141D7047000010B54FF00E402DED24
:1030E000028BB0EE408A18EE104A00EB4400B0F1BB
:1030F000506F4AD84FF0FC40B0EB440F22D2B0EEF4
:10310000C80AF7EE000A30EEC00AF6EE000A60EEDA
:10311000208A18EE900A01F0B1FA01EE100A14F0BC
:10312000004F1DBFDFED2D0A9FED2D0AB1EE411AB4
:10313000DFED2C0A08BF9FED2C0AF8EE001A21EEF5
:10314000218A05E0DFED290A68EE088AB0EE600A00
:103150009FED271ADFED271A30EE080A48EE811A94
:103160009FED251A08EEA11ADFED241A48EE811A08
:103170009FED231A08EEA11A68EE281ABDEC028B07
:1031800001EE810A30EE200A10BD4FF0E440B0EBB2
:10319000440F0CD918EE100AFFF77AFF042808BF75
:1031A00000F084F9B0EE480ABDEC028B10BD4FF080
:1031B0007F40B0EB440F07D2B0EE480ABDEC028B63
:1031C000BDE8104000F063B90120FDF7D7F9BDEC70
:1031D000028BBDE8104000F061B900000000C9BFDB
:1031E00022AAFDB90000C93F22AAFD390000000053
:1031F00024FE1C3DC78AD83C1E67383D1B93993D71
:10320000AFAA2A3E10EE100A10B510EE901A4FF039
:10321000684202EB40032DED028BB3F1654F3CBFDA
:1032200002EB4102B2F1654F7CD200BFC0F3C7533D
:10323000C1F3C7529A1A1B2A09DD10F0004F14BFC0
:103240009FED6E0A9FED6E0ABDEC028B10BD12F170
:103250001A0F1BDA11F0004F09D010F0004F0CBF0D
:103260009FED680A9FED680ABDEC028B10BD80EEF1
:10327000208A18EE100AFFF70BFF042808BF00F0A1
:1032800015F9B0EE480ABDEC028B10BD4200B2EB5E
:10329000410F37D910F0004F19BFDFED5C1A9FEDD9
:1032A0005C1ADFED5C1A9FED5C1AB0EE602A0A46EC
:1032B000F1EE400A80F00041B0EE420A10460A1AD0
:1032C0005200B2F1807F34D2484010F0004FDFED61
:1032D000532A9FED533A1DBFBEEE002A71EEE21A4B
:1032E00031EE431AB6EE002A04BF71EEA21A31EE97
:1032F000031AF0EE402A42EE602A40EE020A82EE05
:10330000A02A18E011F0004F04BF9FED461AF0EE1E
:10331000411AD4D010F0004F1CBFDFED431A9FEDCF
:10332000431A00E026E004BFDFED411A9FED411A89
:10333000C5E780EE202A22EE020ADFED3F0ADFED2C
:103340003F2ABDEC028B40EE202ADFED3D0A40EE25
:10335000220ADFED3C2A40EE202ADFED3B0A40EE58
:10336000220A22EE000A00EE201A31EE020A30EEA6
:10337000210A10BD4FF07F42B2EB400F28BFB2EBE5
:10338000410F05D2BDEC028BBDE8104000F082B8C1
:1033900040EA01035B0008BF41F0FF410BD0B2EBF4
:1033A000400F08BFB2EB410F08D120F0804000EE83
:1033B000100A21F0804100EE901A37E7B2EB400F7F
:1033C00012BF5FEA410240F0FF4001F000413FF4CC
:1033D0002DAF4A0092EA40033FF528AF002AACBF68
:1033E0009FED1A1A9FED1A1A20EE010A60EE810A6B
:1033F00010EE100A10EE901A18E70000DB0FC9BF9C
:10340000DB0FC93FDB0F4940DB0F49C00000C9BFDC
:1034100022AAFDB90000C93F22AAFD390060ED3E95
:10342000C30ACE3700000000000049C022AA7DBABE
:103430000000494022AA7D3A2DAD65BD8FB8D53D2B
:103440000FB511BE61C84C3EA8AAAABE0000804FAD
:103450000000802F10B52DED028BB1EEC08A18EE62
:10346000100A20F00040C0F1FF40C00F0AD010EE5B
:10347000100A20F00040C0F1FF40C00F04BF01203F
:10348000FDF77CF8B0EE480ABDEC028B10BD30EEC3
:10349000000A704730EE200A70470000DFED020A94
:1034A00080EEA00A70470000000000009FED020AB5
:1034B00020EE000A70470000000000102DE9F047E0
:1034C000894604462DED088B04207B49FFF7A6F9B9
:1034D0007A49087010B10220FDF7A8FC7649B1F9CD
:1034E000000000EE100AF8EEC00A9FED750AB1F96F
:1034F0000860B1F90A5060EE800AB1F90E30B1F9F6
:103500001020FDEEE00A10EE900A0FFA80F8B1F9F3
:10351000020000EE900AF8EEE00A60EE800AFDEE8E
:10352000E00A10EE900A0FFA80FCB1F9040000EEF8
:10353000900AF8EEE00A20EE800ABDEEC00A10EE16
:10354000100A07B2B1F90C00B1F9121034B1012C14
:1035500007D0022C08D0032C0BD108E0DFED598AEC
:1035600007E0DFED598A04E0DFED588A01E0DFED86
:10357000588A5FEA090407D0012C08D0022C09D030
:10358000B9F1030F0BD108E09FED528A07E09FEDE0
:10359000528A04E09FED518A01E09FED518A00EECE
:1035A000902A00EE103AF8EEE00AB8EEC00A20EEDB
:1035B000A89A00EE901A20EE280AF8EEE00A20EE13
:1035C000A8AA00EE906AF8EEE00A60EE889A00EE93
:1035D000905AF8EEE00A60EE888A00EE900A3648CB
:1035E000F8EEE00A143000F10C0190ED001A20EE24
:1035F000888A00EE908AD0ED011AF8EEE00A30EEEB
:10360000C11AD1ED000A21EE20BA01EE10CAB8EEBF
:10361000C11A31EE611AD0ED021A324861EE20AAC9
:1036200001EE107AB8EEC11A31EE611A61EE20BADD
:1036300000F0E6FC204C2C482C3484ED000AB0EE5F
:10364000490A00F0DDFC84ED010AB0EE4A0A274881
:1036500000F0D6FC84ED020AB0EE690A244800F0BE
:10366000CFFC0C34234884ED000AB0EE680A00F069
:10367000C7FC84ED010AB0EE480A1F4800F0C0FC08
:1036800084ED020AB0EE4B0A1C4800F0B9FC0C3481
:103690001B4884ED000AB0EE6A0A00F0B1FC84ED2C
:1036A000010AB0EE6B0A174800F0AAFC84ED020A8A
:1036B000BDEC088BBDE8F087C001002000000020B1
:1036C0009A99993ECDCC1C3ACDCC9C3ACDCC1C3BA2
:1036D000CDCC9C3B5EA00B395EA08B395EA00B3A33
:1036E0005EA08B3A040000201C0000203400002063
:1036F0004C000020640000207C000020940000208A
:10370000AC000020C400002070B5BF4CB0EE614A90
:103710002DED108BF0EE608AB0EE409AF0EE439AF9
:10372000B0EE413AB6EE008AF0EE423AB5EEC04A4B
:10373000D4ED010A94ED021AD4ED031A20EEC90A61
:1037400001EE680A01EEC30A60EE08BA94ED000AC1
:1037500020EE092A01EE032A01EEE82A22EE08BA39
:1037600020EE282A20EE030A00EEC32A00EEA80A63
:1037700001EE892A01EE490A62EE08AA20EE08AAA3
:10378000F1EE10FA09D1F5EEC03AF1EE10FA04D1DB
:10379000F5EEC02AF1EE10FA7ED024EE040A03EE14
:1037A000A30A02EEA20A00F00DFC24EE001A63EE5A
:1037B000800A62EE807AB0EE000AD4ED001A94ED31
:1037C000014AD4ED022A94ED035A21EE80CA64EE38
:1037D000006A22EE806A25EE00DAB1EE000A21EEE0
:1037E000A1EA61EE80EA62EEA21AB2EE002A2EEEA3
:1037F00000EA62EE803A6EEEA14A22EE827A6EEE26
:10380000222A64EE02DA46EE014A24EE042A64EE2D
:10381000005A65EE05CA4CEE012A4EEE824A65EE6C
:10382000ACEA43EEAC2A4DEE41EA46EEE04A4DEEFC
:10383000602A4EEE04EA72EEE32A4CEE60EA47EEAE
:10384000022A3EEEE54A47EE212A0DEE824A22EE9A
:10385000002A21EE800A43EEA72A62EE053A0DEE19
:10386000A14A46EEC13A05EEA74A40EE053A24EEDB
:10387000A40A04EE040A46EE603A02EEA20A03EE3F
:10388000A30A00F09FFB24EE80EA64EE00EA22EE39
:1038900080FA63EE80FA00E036E0B0EEC30A10EE84
:1038A000100A01F009FD41EC1C0BB0EEE80A10EE25
:1038B000100A01F001FD41EC1D0BB0EEC90A10EE3B
:1038C000100A01F0F9FC53EC1D2B01F065FA53ECE2
:1038D0001C2B01F061FA9FED4D1B53EC112B01F0F5
:1038E00003FB01F027FA00EE100A4A4910EE100A15
:1038F000884201DAB1EE040A40EE4EBA00EE6EBA2A
:1039000040EE4FAA00EE6FAA94ED000A0BEEA90A52
:1039100084ED000AD4ED010A20EE000A4BEE290ADC
:10392000C4ED010A94ED021A00EEA00A0AEEA91AEB
:1039300084ED021AD4ED031A01EE010A4AEE291AA7
:10394000C4ED031A01EEA10A00F03CFBD4ED000A1D
:1039500060EE802AC4ED002AD4ED010A60EE801AE0
:10396000C4ED011AD4ED020A20EE801A84ED021A89
:10397000D4ED030A20EE802AF0EE480A22EEA10AD6
:1039800041EEE10A84ED032A01EE020A41EE410A0A
:10399000FFF738FCDFED208A204D20EE280A85ED68
:1039A000020A94ED010AD4ED030A94ED021A20EE06
:1039B000200AD4ED000A00EEC10AF8EE000A20EE5B
:1039C000200AFFF789FB20EE280AF0EE480A85ED71
:1039D000000A94ED020AD4ED011A94ED031A40EEA8
:1039E000400A21EE800AD4ED001A01EE810A41EE70
:1039F000410AFFF707FCDFED0A0A40EE280AC5ED91
:103A0000010ABDEC108B70BD2401002000000000F5
:103A1000000034400000A040E12E6542100200206A
:103A20000000344330B5B5EEC03A2DED0A0BB0EED0
:103A3000425A2DED108BB0EE64EAF0EE614AF1EEE1
:103A400010FA9DB017D1F5EEC03AF1EE10FA12D18E
:103A5000B5EEC04AF1EE10FA0DD19FEDFE3A1DB061
:103A6000B0EE452ABDEC108B0AB0F0EE641ABDE84A
:103A70003040FFF749BEDFEDF81AF84CF5EEC04ACA
:103A800020EE21DA60EEA1CAD4ED010A21EE21CAAE
:103A900094ED022A20EECD1AD4ED031AB6EE000AF8
:103AA00002EE6C1A01EECC1A21EE001A8DED101AFE
:103AB00094ED001A61EE0D5A42EE0C5A41EEEC5AAA
:103AC00065EE805ACDED0F5A61EE2C5A21EE0C1A9C
:103AD00040EECC5A00EEAC1A41EE8D5A02EE4D1A71
:103AE00065EE801A61EE00FACDED0E1AF1EE10FAD5
:103AF00009D1B5EEC05AF1EE10FA04D1F5EEC02AA4
:103B0000F1EE10FA7ED024EEA40A05EE050A02EECC
:103B1000A20A00F057FA64EE804A22EE808ACDEDC8
:103B2000304A65EE004A23EE030ACDED314A8DEDB1
:103B3000328A03EEA30A04EE040A00F043FAD4ED3D
:103B4000002AB0EE008A63EE009A22EE881A23EE75
:103B5000809A64EE008A22EEA2FA21EE293A21EE42
:103B6000282A8DED063A21EE093A8DED053AD4ED7D
:103B7000011A21EE88BA62EEA16A61EEA1BA2BEEBB
:103B8000293A8DED0A3A8DED121AD4ED020A94ED20
:103B9000030A60EE88AA60EE08DA21EE201A21EE10
:103BA000A03ACDED11DA8DED0B1A2AEE801A61EEF6
:103BB00080EA20EEA0AA8DED161ACDED086A22EE5D
:103BC000A01A62EE806A69EE8F2A8DED0C1ACDED97
:103BD000196A8DED183A20EE803A2BEE091A60EE44
:103BE00000DA8DED173A9DED053A43EE402A42EE9C
:103BF000202A49EEAB2A41EE202A2BEE281A41EE6C
:103C0000002A00E04BE19DED063A49EECA2A23EE78
:103C1000001A9DED0A3A09EE0F1A49EEED2A02EE5E
:103C2000611A03EE201A6AEEA80A09EE6B1A09EE71
:103C30000A1A00EE801A22EEA20A09EE6D1A01EEAF
:103C4000010AFFF707FC9DED053A94ED014A94ED5A
:103C5000022AD4ED031A63EE040A9DED063A2AEE19
:103C6000891ADDED086A43EE420A9DED0A3ADDED60
:103C7000314AF6EE002A60EE087A48EE8F0A43EEEB
:103C8000210A48EEEB0A41EE210A9DED161A06EED6
:103C9000881ADDED196A48EECA0A31EE645A9DEDC4
:103CA0000B1ADDED304A48EEAD0A1EEE881A65EEBD
:103CB0000B3A20EE88FA71EE644A32EECA1A72EEBE
:103CC000EB2A4AEEE43A31EE6D1A72EECA2ADDEDC5
:103CD00011DA21EE003A9DED0C1A3EEEC11A00EE0B
:103CE000813A20EE841AB0EE416A73EE695A9DED76
:103CF000183A60EE829A00EE611A33EE663ADDED14
:103D0000086A49EEE53A23EE007A9DED173A36EE61
:103D1000833A00EE837A20EE023A77EE496AB1EEFA
:103D2000009A41EE263A9DED0C1A31EE2E1A21EE44
:103D3000001A00EEA21A64EEAD2A31EE687A9DED0B
:103D4000121A41EE052AB7EE001A43EE073A0BEEBF
:103D5000C81A0AEE481A9DED328A71EE488A24EE9E
:103D6000091A94ED008A41EE682A20EEA11A41EE6C
:103D7000252A00EE883A20EE211A07EEE16A40EE8D
:103D8000489A0FEE441A43EE262A25EE2D3A41EECC
:103D9000072A9DED121A01EE643A22EE091A01EE8D
:103DA000683A27EEC21A60EE048A24EE8B4A00EECF
:103DB000C81A0AEE854A01EE253AB0EE681A06EEF8
:103DC000254A00EEA11A60EE080A23EEA30A4FEE80
:103DD000420A01EE263A09EEA64A02EEA20A00EED7
:103DE000873A08EE874A03EE030A04EE040A00F05D
:103DF000E9F823EE808A62EE808A23EE009A64EE70
:103E0000009AB0EECC0A10EE100A01F055FA41EC1F
:103E10001A0BB0EEEC0A10EE100A01F04DFA41EC6C
:103E20001B0BB0EECD0A10EE100A01F045FA53EC70
:103E30001B2B00F0B1FF53EC1A2B00F0ADFF9FEDF0
:103E4000081B53EC112B01F04FF800F073FF00EE4C
:103E5000100A09E06F12033B39FA8E3C240100205E
:103E6000000000000000344010EE100A5149884262
:103E700001DAB1EE040ADDED100A40EE69FA40EE17
:103E8000480ACDED100ADDED0F0A40EE680ACDEDCF
:103E90000F0ADDED0E0A40EE490ACDED0E0A94ED53
:103EA000000ADDED100A00EE8E0A84ED000AD4ED62
:103EB000011ADDED0F0A20EE000A40EE8E1AC4ED65
:103EC000011A94ED021ADDED0E0A01EEA10A00EED0
:103ED0008E1A84ED021AD4ED030A01EE010A4FEEA8
:103EE0008E0AC4ED030A00EEA00A00F06BF8D4EDD0
:103EF000000AB6EE008A60EE802AC4ED002AD4EDF6
:103F0000010A60EE801AC4ED011AD4ED020A20EE17
:103F1000801A84ED021AD4ED030A20EE802AF0EE16
:103F2000480A22EEA10A41EEE10A84ED032A01EEDD
:103F3000020A41EE410AFFF765F9DFED1F8A1F4DC6
:103F400020EE280A85ED020A94ED010AD4ED030A59
:103F500094ED021A20EE200AD4ED000A00EEC10A08
:103F6000F8EE000A20EE200AFFF7B6F820EE280A45
:103F7000F0EE480A85ED000A94ED020AD4ED011A2C
:103F800094ED031A40EE400A21EE800AD4ED001AA7
:103F900001EE810A41EE410AFFF734F9DFED080A2C
:103FA00040EE280AC5ED010A1DB0BDEC108B0AB029
:103FB00030BD00000000A040E12E6542100200204C
:103FC0000000344310EE100AF6EE000A0B4960EED2
:103FD000200AA1EB600000EE100AB7EE081A20EEEE
:103FE000802AF0EE411A42EE401A21EE800A60EE7D
:103FF000800A00EEC01A21EE000A7047DF59375FD1
:10400000F0EE401A90ED000AD0ED040A70EE200A9E
:10401000C0ED010A90ED050A30EE800A80EE801AAC
:1040200080ED031A90ED020A71EEC01A01EE210A2A
:10403000F7EE001A31EEC11A80ED020A61EE200A95
:10404000C0ED000A7047FDF79FFAFEF739FDFEF755
:10405000F7FAFEF7ABFAFEF78BFBFEF7A3FBFEF7D2
:1040600067FBFEF7D9FA00F0D2F8FEE70146002020
:10407000842900D0C81C70472DE9F04786B08146DE
:10408000002514216846FCF74AFA5A4800260168C0
:1040900041F0020101600068574F00F002000590F6
:1040A000C020CDE900060120029069463846FCF7A1
:1040B000CFFE49F640446D1CADB2A542FBD3802132
:1040C0003D463846FCF788FF28B140212846FCF7DA
:1040D00083FF012873D140204FF01108CDE900087B
:1040E000694602962846FCF7B3FE4FF0800A00228C
:1040F00040212846FCF77CFF0020401C80B2A042F3
:10410000FBD380212846FCF767FF18B3CDF800A049
:10411000CDE9018669462846FCF79AFE00228021F7
:104120002846FCF765FF00277F1CBFB2A742FBD3E0
:10413000012240212846FCF75BFF0020401CC0B252
:104140000928FBD3012280212846FCF751FF092FC3
:104150000ED234E0012240212846FCF749FF00201E
:10416000401C80B2A042FBD3401C80B20928BED3C1
:1041700080212846FCF730FF012820D1CDF800A08F
:10418000CDE9018669462846FCF762FE00228021BF
:104190002846FCF72DFF0020401C80B2A042FBD334
:1041A000012240212846FCF723FF0021491CC9B207
:1041B0000929FBD3012280212846FCF719FF0020A2
:1041C000401C80B2A042FBD3D9F80000016841F442
:1041D000004101600020401C80B2A042FBD3D9F80E
:1041E00000000660054880F83D60FEF7A1FA06B0C1
:1041F000BDE8F0873038024000040240E4020020AD
:1042000010B500B9012000F013FB002010BD10B55F
:1042100000F07AFB002010BD3EB504460D46B0F913
:104220000800FFF723FF02A9CDE90001208A2B46F1
:1042300082B2D4E9001000F077FC012801D0002000
:104240003EBD02983EBD00002DE9F041184C0F46DE
:10425000054666692068001D00F02FFA38B920680D
:1042600090F82C1001208840A1698143A161681C4D
:1042700007D137B12168BDE8F0410E48091D00F0B3
:1042800056BA20683544B5424560216805D2A06819
:10429000BDE8F041091D00F032BA6068091D00F068
:1042A0002EFA206B854200D22563BDE8F081000024
:1042B00060010020F40500202DE9F041054600F0E2
:1042C00043FA2E4C2069401C206120682C4F10B10D
:1042D000E06940B32DE025602069012829D100263E
:1042E00006EB860007EB800000F0FBF9761C072E3A
:1042F000F6D323488C3000F0F4F92148A03000F0C8
:10430000F0F91F48B43000F0ECF91D48C83000F057
:10431000E8F91B48DC3000F0E4F919488C306060A3
:104320001430A06005E02068E96AC06A884200D8BD
:104330002560E06A401CE0626864E96A0120A269C5
:1043400088401043A06101EB810007EB8000291D2C
:1043500000F0EDF900F018FAE06900280CD02068B0
:10436000E96AC06A884207D206494FF08050086067
:10437000BFF34F8FBFF36F8FBDE8F0816001002066
:104380001805002004ED00E010B50446006B00F0B5
:104390000FFA2046BDE8104000F00ABA10484FF46A
:1043A000A031420706D0C01D0D4920F00700411A78
:1043B000C1F5A0310B4A00230144C2E900030839CA
:1043C000103A21F0070111604B600B600B1AC0E935
:1043D000001393604FF000405360D06070470000BE
:1043E00008060020AC010020144E154CA6F1C807A9
:1043F0004FF08058DFF84C9012E000BF00F0A4F9B5
:10440000F068C568281D00F058F92069401E206139
:10441000E068401EE06000F0B7F92846FFF7B4FFFF
:10442000E0680028EAD138680128F9D9C9F8008085
:10443000BFF34F8FBFF36F8FF2E70000E00500205E
:104440006001002004ED00E02DE9F0470E46DDE9B3
:1044500009841746824691009946089DA522206B43
:10446000FCF733F86FF00301206B01EB8701084480
:1044700020F00707780707D0502080F31188BFF39A
:104480004F8FBFF36F8FFEE72218315C82F8341034
:10449000315C11B1401C1028F6D3002684F843602B
:1044A000072D00D30625E562C4E91356201D00F050
:1044B00023F904F1180000F01FF92461C5F1070089
:1044C0006462A061666584F858604A465146384681
:1044D00000F0BEF82060B8F1000F01D0C8F800402D
:1044E000BDE8F08730B5114900E011460A68824204
:1044F000FBD34B685C18844203D140681844486081
:10450000084643681C18944209D1084C103C2468A2
:10451000A24209D052681A4442600A6812680260D6
:10452000814200D0086030BD0460F9E7AC01002092
:1045300006484168096829B14168C968C96849687D
:10454000016370474FF0FF31FAE70000600100207F
:1045500008484068401C4FF0500080F3118804D098
:10456000BFF34F8FBFF36F8FFEE7BFF34F8FBFF3E4
:104570006F8FFEE7B40100202DE9F04105460027CA
:1045800000F0F6F9314E306808B9FFF707FFF06820
:1045900005424BD1C5B3083568070ED005F00700BA
:1045A000C0F108000544680707D0502080F3118847
:1045B000BFF34F8FBFF36F8FFEE72DB37068854257
:1045C00034D82248103001460C6801E020460C46E1
:1045D0006168A94202D221680029F7D131688C4272
:1045E00024D007682168016060680837411B1029E2
:1045F0000FD96019420708D0502080F31188BFF30B
:104600004F8FBFF36F8FFEE710E041606560FFF7EB
:1046100069FF61687068401A7060B268904200D2A9
:10462000B060F06801430020C4E9000100F020FB05
:10463000780707D0502080F31188BFF34F8FBFF366
:104640006F8FFEE73846BDE8F08100009C01002036
:1046500010B5031F4FF080741C601B1F21F0010177
:104660001960191F044B0B6014390A60091F6FF0A1
:10467000020244380A6010BD5145000810B500EE32
:10468000100A2DED028BB1EEC08A18EE100A20F050
:104690000040C0F1FF40C00F0AD010EE100A20F019
:1046A0000040C0F1FF40C00F04BF0120FBF766FFD0
:1046B00018EE100ABDEC028B10BDD0E90132016981
:1046C0009A60D0E901235A604A68824201D1826827
:1046D0004A60002202610868401E0860086870474E
:1046E000704700F108014FF0FF32C0E90112C160CC
:1046F000016100210160704700210161704730B500
:104700000B685A1C02D000F1080202E0026904E0C2
:104710002246546825689D42FAD953684B609960D7
:104720008A60516008610168491C016030BD4268BF
:104730004A6093688B609368596091600861016872
:10474000491C016070470000502080F31188BFF3BE
:104750004F8FBFF36F8F0A494868401C486001289B
:104760000CD10848006810F0FF0F07D0502080F3EC
:104770001188BFF34F8FBFF36F8FFEE770470000C4
:10478000B401002004ED00E00849486828B1401E4B
:10479000486001D180F311887047502080F3118860
:1047A000BFF34F8FBFF36F8FFEE70000B40100200F
:1047B00070B5002827D0144DA0F108046168E8689E
:1047C000014207D1502080F31188BFF34F8FBFF310
:1047D0006F8FFEE722683AB1502080F31188BFF353
:1047E0004F8FBFF36F8FFEE78143616000F0C0F829
:1047F00060686968084468602046FFF773FEBDE89A
:10480000704000F035BA70BD9C0100204FF0E020F0
:1048100000210161816105494FF47A720968B1FB99
:10482000F2F1491E41610721016170475C010020DE
:1048300010B5020014D00F48806B38B1502080F3BF
:104840001188BFF34F8FBFF36F8FFEE700F090F832
:1048500000211046FFF7F8FC00F00AFA002807D103
:1048600005494FF080500860BFF34F8FBFF36F8F43
:1048700010BD00006001002004ED00E070B50D46A1
:1048800004000BD095B11E4A906BB8B1502080F354
:104890001188BFF34F8FBFF36F8FFEE7502080F377
:1048A0001188BFF34F8FBFF36F8FFEE7502080F367
:1048B0001188BFF34F8FBFF36F8FFEE700F058F8FA
:1048C000526923685919934204D98B420AD99142FB
:1048D00002D807E08B42FAD9881A21600021FFF73D
:1048E000B3FC00E0216000F0C3F9002807D10549BE
:1048F0004FF080500860BFF34F8FBFF36F8F70BDD4
:104900006001002004ED00E01CB515480024CDE94D
:1049100000402346802213A1144800F005F9012825
:1049200009D0401C1AD1502080F31188BFF34F8F5B
:10493000BFF36F8FFEE7502080F31188BFF34F8FD6
:10494000BFF36F8F06484FF0FF3134380163012108
:10495000C1614461BDE81C4000F056B81CBD0000B8
:104960009401002049444C4500000000E943000840
:104970000248816B491C8163704700006001002080
:1049800010B51F4CA06B10B10120606210BD00205B
:10499000606220684FF0A531006B02688A4208D13E
:1049A00042688A4205D182688A4202D1C068884240
:1049B00004D0216820683431FFF792FEA0691149C4
:1049C000B0FA80F0C0F11F0000EB800051F8202009
:1049D0006AB101EB800000F108024168496841605A
:1049E000914201D149684160C868206010BD5020E3
:1049F00080F31188BFF34F8FBFF36F8FFEE7000086
:104A000060010020180500201CB537480168374AAE
:104A1000914207D1502080F31188BFF34F8FBFF32D
:104A20006F8FFEE700683149491E884207D1502048
:104A300080F31188BFF34F8FBFF36F8FFEE72C49D0
:104A400008780190FF20087008788DF800009DF824
:104A500000009DF8002000F0F000904207D05020A8
:104A600080F31188BFF34F8FBFF36F8FFEE79DF880
:104A70000000204B00F0500018700720986005E0FF
:104A80009DF8002052008DF80020401E9DF8002067
:104A90001206F5D49860032807D0502080F31188BF
:104AA000BFF34F8FBFF36F8FFEE74FF440709860F6
:104AB000019808700C482030016841F470010160D1
:104AC000016841F070410160FFF7A0FE00205860CE
:104AD000FBF7F6FB0848016841F040410160FBF735
:104AE000DBFB00201CBD000000ED00E071C20F41A7
:104AF00000E400E0B401002034EF00E010B55020E5
:104B000080F31188BFF34F8FBFF36F8F00F04CF825
:104B100018B104494FF080500860002080F31188DC
:104B200010BD000004ED00E02DE9FF5F8346DDE9E4
:104B30000E87994616468A469000FFF71DFD050030
:104B40001AD05C20FFF718FD040012D02563002165
:104B5000CDE90241CDE900874B46324651465846E1
:104B6000FFF772FC2046FFF7A7FB012004B0BDE869
:104B7000F09F2846FFF71CFE4FF0FF30F6E70000DD
:104B80000548C16919B1806B18B100207047012038
:104B90007047022070470000600100200148406912
:104BA00070470000600100202DE9F0412E4C0027E5
:104BB000A06B40B1206A401C2062606A00B10127EE
:104BC0003846BDE8F0816669761C666113D160687D
:104BD000006838B1502080F31188BFF34F8FBFF3C6
:104BE0006F8FFEE76068A1686160A060A06A401CEA
:104BF000A062FFF79DFC206BDFF87080864209D32E
:104C00006068006880B16068C068C568686886428E
:104C10000DD220632068C06A00EB800158F82100A3
:104C20000128CAD90127C8E74FF0FF30F1E7281D56
:104C3000FFF743FDA86A18B105F11800FFF73DFD25
:104C4000E86A0121A26981401143A16100EB800162
:104C500008EB8100291DFFF76AFDE86A2168C96A2F
:104C60008842CDD30127CBE7600100201805002042
:104C70002DE9F0472C4D00242746A86B38B1FFF7EB
:104C800063FDA86B401EA863A86B40B146E05020AE
:104C900080F31188BFF34F8FBFF36F8FFEE7296951
:104CA000224E0120D1B3A6F1B40980463068E8B1A4
:104CB000F068C46804F11800FFF7FFFC201DFFF73F
:104CC000FCFCE06AAA6908FA00F11143A96100EB53
:104CD000800109EB8100211DFFF729FDE06A2968A9
:104CE000C96A8842E2D3C5F82480DFE70CB1FFF738
:104CF0001FFC2C6A44B14646FFF756FF00B16E62B6
:104D0000641EF9D100202862686A38B10849012779
:104D100038070860BFF34F8FBFF36F8FFFF734FD85
:104D20003846BDE8F087000060010020CC05002077
:104D300004ED00E021F00042A2F16052B2F5801FC4
:104D400001F0004328BFD2F17F6C0BD95FEA001C51
:104D500043EAC20242EB507018BF704728BF20F0F0
:104D600001007047B2F5801FBCBF184670474FEA7C
:104D7000410C1CF5001F02D2084600F013BB70B5B1
:104D800000F05CF900000089FFF7F6BF4FF000402B
:104D9000A0F580007047000010B591EA030F48BFEE
:104DA00083F0004300F1A681841A71EB030C05D255
:104DB000121943EB0C03001B61EB0C01DFF824E13B
:104DC0004FEA1154A4EB135C1EEA430F18BF9EEA8E
:104DD000445F73D023EA0E03DCF1200E21EA045174
:104DE00043F4801332D322FA0CFE10EB0E0023FAA8
:104DF0000CFE41EB0E01CCF1200E03FA0EFE10EB7F
:104E00000E0051F10001B1F5801FCCF1200E32D21D
:104E100001EB045112FA0EF2BDE8104058BF704782
:104E2000401C38BF5FEA420218BF7047002814BF19
:104E300020F0010041F100014FEA410313F5001F8A
:104E400038BF7047A1F1C04100F046B9012A43EBD9
:104E50000302ACF1200CDCF11F0E32BF4FF0000E4C
:104E600023FA0CF310EB030041EB0451B4EB115F98
:104E7000D0D0A1EB045101F5801149085FEA300060
:104E800001EB04510ED350F1000038BF12FA0EFEB0
:104E900008D1BDE81040C9E7401C38BF5FEA4202B4
:104EA000CAD1C3E7BDE810404FEA410313F5001F24
:104EB00038BF7047A1F1C04100F00EB99EEA445FCF
:104EC00008D011EA5E0FBDE8104004BF01F00041B8
:104ED00000207047BDE8104070B500F0AFF800BF8B
:104EE00064FBBE3E0000E0FFDFF848C170B51CEA7D
:104EF000111E1EBF1CEA13159EEA0C0F95EA0C0F3B
:104F000000F06F8081EA030423EA4C134EEAD47E5A
:104F100021EA4C1141F4801143F48013AE44A1FB0B
:104F2000024CA0FB0365AEF17F7E361955EB0C05F4
:104F3000A1FB034C4CF10003A0FB021C16EB0C067A
:104F4000654153F10003094218BF46F0010613F40E
:104F5000007F0BD14FEA03314FEA0530340341EAB9
:104F6000155140EA16506FF003020AE04FEAC321E0
:104F70004FEAC520F40241EA555140EA56506FF01D
:104F8000020202EB2E4201EB025585EACE710AD0F5
:104F90005FEA440C18BF24F0004450F1000041F1D6
:104FA000000120EAD47040F2FE7C624500D270BD60
:104FB000A84214BF4FF080444FF04044002E08BF79
:104FC0000024BEF1806FA8BFA1F1C041BDE87040D0
:104FD00080F282804FF0000001F1C04101F00041F9
:104FE00070479EEA0C0F0CEA131518BF95EA0C0FD8
:104FF00006D04FF0000081EA030E0EF0004170BDB4
:1050000000F01CF88900013E00F007B800F009B874
:105010004FEA430C5FEA5C5C08D081EA030100F0D0
:105020005BB84FEA410C5FEA5C5CF6D14FF00000E0
:10503000014970470000FF070000F87F0EF1020EE3
:105040002EF0030E5EF8046B364205D4012A43EBC2
:10505000030515F5001F12D8012841EB010C1CF5C2
:10506000001F0CD80ED14FEAD17C15F5001F0CEBB8
:105070004C0C0CF1020C08BF4CEBD37C04E04FF05D
:10508000080C01E04FEAD37C0CEB4C0526FA05F640
:1050900006F00706B6F1040C06D20EEB860CBDE84E
:1050A00070404CF0010C6047DFE80CF0090B020285
:1050B0004FF000414FF00000A1F5002170BD1946EE
:1050C0001046012851EB010418BFD4F5001484BF29
:1050D000002001F0004170BD0808A0F500114FEA62
:1050E0003101704710B591EA030F48BF83F00043C8
:1050F0003FF55AAE841A71EB030C07D212198CF0EB
:10510000004C43EB0C03001B61EB0C01DFF8A4E146
:105110004FEA1154A4EB135C1EEA430F18BF9EEA3A
:10512000445F00F0B08023EA6E03524221EA04514A
:10513000C3EB6E0338BF5B1EDCF1200E25D322FAD1
:105140000CFE10EB0E0043FA0CFE41EB0E01CCF10D
:10515000200E03FA0EFE10EB0E0051F10001CCF10F
:10516000200E29D412FA0EF201EB0451BDE81040D2
:1051700058BF7047401C1CBFB2F1004F7047002859
:105180000CBF491C20F00100704712EB020E43EBEC
:10519000030218BF4FF0010E4EEA4202ACF1200CA0
:1051A000DCF11E0E54D943FA0CFE10EB0E0051F147
:1051B000FF31CCF11E0ED5D50EF1010E12FA0EFE06
:1051C000404141EB010101EB445C5FEA5C5C10D9BA
:1051D00010EBDE7001EB045138BFBEF1004FBDE8AB
:1051E000104018BF704700280CBF491C20F0010078
:1051F000704730D24FEAD42C11F5001124F400642A
:105200001BD0B1FA81F20B3AA41AA41ED2F12003EA
:10521000914030FA03F31943904001EBCC71002C1C
:1052200001EB0451BDE81040A8BF704701F1C04137
:105230004FF0000001F000417047B0FA80F310FA1F
:1052400003F100D110BDE41A173C4805C90AE4E790
:1052500001EB045110BD491001EB0451BDE81040B1
:105260004FEA300002E04FF0000170474A0008BFEB
:105270000042F8D0B2F5001F28BF704701F000418E
:105280004FF0000070479EEA445F07D011EA5E0FBE
:10529000BDE8104004BF002100207047BDE8104069
:1052A00070B5FFF7CBFE00BF40DFF63E83F0004154
:1052B000104670470000E0FF43004FEAD30C4FEA6E
:1052C0003C0C43401FBF40070CF1605113F0FE4FF0
:1052D00070471CF0006F03D100200CF000417047B4
:1052E0000CF0004343EA507010B540EACC0000F0E7
:1052F0000EF800BF000000924FEA0001FFF7ECBE7D
:105300004FF000414FF00000A1F5002170470EF171
:10531000020E2EF0030E5EF8044B244204D44FEA32
:105320004102B2F17F4F11D84FEA4003B3F17F4FF2
:105330000CD80ED14FEAD07CB2F17F4F0CEB4C0C65
:105340000CF1020C08BF4CEBD17C04E04FF0080CD0
:1053500001E04FEAD17C0CEB4C0324FA03F404F097
:105360000704B4F1040C06D20EEB840CBDE8104027
:105370004CF0010C6047DFE80CF0070802024FF028
:105380000040A0F5800010BD0846420018BFD2F1D1
:10539000807288BF00F0004010BD4FF04070E1EE19
:1053A000100A7047FF2141EAD050C0057047000045
:1053B000E45300083D280008010000000000000040
:1053C0000004000000061016000610160000000081
:1053D00000000000010203040607080900000000A5
:1053E0000102030464656661756C745461736B003B
:1053F0001054000800000020C0010000D401000883
:105400005C540008C0010020A8940100300200088C
:1054100041C56F12033B08093E0AD7233CEC51B843
:105420003D1808093ECDCCCC3D9A99794018080921
:105430003E8FC2753D3333A34118080912295C8F92
:105440003DCDCC4C3F30091A18211A800401263278
:0C545000018210035924F41AAA01410043
:040000050800019955
:00000001FF
